{
  "_format": "hh-sol-artifact-1",
  "contractName": "LearningCertificate",
  "sourceName": "contracts/LearningCertificate.sol",
  "abi": [
    {
      "inputs": [],
      "stateMutability": "nonpayable",
      "type": "constructor"
    },
    {
      "anonymous": false,
      "inputs": [
        {
          "indexed": true,
          "internalType": "address",
          "name": "owner",
          "type": "address"
        },
        {
          "indexed": true,
          "internalType": "address",
          "name": "approved",
          "type": "address"
        },
        {
          "indexed": true,
          "internalType": "uint256",
          "name": "tokenId",
          "type": "uint256"
        }
      ],
      "name": "Approval",
      "type": "event"
    },
    {
      "anonymous": false,
      "inputs": [
        {
          "indexed": true,
          "internalType": "address",
          "name": "owner",
          "type": "address"
        },
        {
          "indexed": true,
          "internalType": "address",
          "name": "operator",
          "type": "address"
        },
        {
          "indexed": false,
          "internalType": "bool",
          "name": "approved",
          "type": "bool"
        }
      ],
      "name": "ApprovalForAll",
      "type": "event"
    },
    {
      "anonymous": false,
      "inputs": [
        {
          "indexed": true,
          "internalType": "address",
          "name": "previousOwner",
          "type": "address"
        },
        {
          "indexed": true,
          "internalType": "address",
          "name": "newOwner",
          "type": "address"
        }
      ],
      "name": "OwnershipTransferred",
      "type": "event"
    },
    {
      "anonymous": false,
      "inputs": [
        {
          "indexed": true,
          "internalType": "address",
          "name": "from",
          "type": "address"
        },
        {
          "indexed": true,
          "internalType": "address",
          "name": "to",
          "type": "address"
        },
        {
          "indexed": true,
          "internalType": "uint256",
          "name": "tokenId",
          "type": "uint256"
        }
      ],
      "name": "Transfer",
      "type": "event"
    },
    {
      "inputs": [
        {
          "internalType": "address",
          "name": "to",
          "type": "address"
        },
        {
          "internalType": "uint256",
          "name": "tokenId",
          "type": "uint256"
        }
      ],
      "name": "approve",
      "outputs": [],
      "stateMutability": "nonpayable",
      "type": "function"
    },
    {
      "inputs": [
        {
          "internalType": "address",
          "name": "owner",
          "type": "address"
        }
      ],
      "name": "balanceOf",
      "outputs": [
        {
          "internalType": "uint256",
          "name": "",
          "type": "uint256"
        }
      ],
      "stateMutability": "view",
      "type": "function"
    },
    {
      "inputs": [
        {
          "internalType": "uint256",
          "name": "",
          "type": "uint256"
        }
      ],
      "name": "certificates",
      "outputs": [
        {
          "internalType": "string",
          "name": "courseName",
          "type": "string"
        },
        {
          "internalType": "string",
          "name": "studentName",
          "type": "string"
        },
        {
          "internalType": "uint256",
          "name": "completionDate",
          "type": "uint256"
        },
        {
          "internalType": "string",
          "name": "grade",
          "type": "string"
        },
        {
          "internalType": "string",
          "name": "ipfsHash",
          "type": "string"
        }
      ],
      "stateMutability": "view",
      "type": "function"
    },
    {
      "inputs": [
        {
          "internalType": "uint256",
          "name": "tokenId",
          "type": "uint256"
        }
      ],
      "name": "getApproved",
      "outputs": [
        {
          "internalType": "address",
          "name": "",
          "type": "address"
        }
      ],
      "stateMutability": "view",
      "type": "function"
    },
    {
      "inputs": [
        {
          "internalType": "uint256",
          "name": "tokenId",
          "type": "uint256"
        }
      ],
      "name": "getCertificate",
      "outputs": [
        {
          "components": [
            {
              "internalType": "string",
              "name": "courseName",
              "type": "string"
            },
            {
              "internalType": "string",
              "name": "studentName",
              "type": "string"
            },
            {
              "internalType": "uint256",
              "name": "completionDate",
              "type": "uint256"
            },
            {
              "internalType": "string",
              "name": "grade",
              "type": "string"
            },
            {
              "internalType": "string",
              "name": "ipfsHash",
              "type": "string"
            }
          ],
          "internalType": "struct LearningCertificate.Certificate",
          "name": "",
          "type": "tuple"
        }
      ],
      "stateMutability": "view",
      "type": "function"
    },
    {
      "inputs": [
        {
          "internalType": "address",
          "name": "owner",
          "type": "address"
        },
        {
          "internalType": "address",
          "name": "operator",
          "type": "address"
        }
      ],
      "name": "isApprovedForAll",
      "outputs": [
        {
          "internalType": "bool",
          "name": "",
          "type": "bool"
        }
      ],
      "stateMutability": "view",
      "type": "function"
    },
    {
      "inputs": [
        {
          "internalType": "address",
          "name": "recipient",
          "type": "address"
        },
        {
          "internalType": "string",
          "name": "courseName",
          "type": "string"
        },
        {
          "internalType": "string",
          "name": "studentName",
          "type": "string"
        },
        {
          "internalType": "uint256",
          "name": "completionDate",
          "type": "uint256"
        },
        {
          "internalType": "string",
          "name": "grade",
          "type": "string"
        },
        {
          "internalType": "string",
          "name": "ipfsHash",
          "type": "string"
        }
      ],
      "name": "mintCertificate",
      "outputs": [
        {
          "internalType": "uint256",
          "name": "",
          "type": "uint256"
        }
      ],
      "stateMutability": "nonpayable",
      "type": "function"
    },
    {
      "inputs": [],
      "name": "name",
      "outputs": [
        {
          "internalType": "string",
          "name": "",
          "type": "string"
        }
      ],
      "stateMutability": "view",
      "type": "function"
    },
    {
      "inputs": [],
      "name": "owner",
      "outputs": [
        {
          "internalType": "address",
          "name": "",
          "type": "address"
        }
      ],
      "stateMutability": "view",
      "type": "function"
    },
    {
      "inputs": [
        {
          "internalType": "uint256",
          "name": "tokenId",
          "type": "uint256"
        }
      ],
      "name": "ownerOf",
      "outputs": [
        {
          "internalType": "address",
          "name": "",
          "type": "address"
        }
      ],
      "stateMutability": "view",
      "type": "function"
    },
    {
      "inputs": [],
      "name": "renounceOwnership",
      "outputs": [],
      "stateMutability": "nonpayable",
      "type": "function"
    },
    {
      "inputs": [
        {
          "internalType": "address",
          "name": "from",
          "type": "address"
        },
        {
          "internalType": "address",
          "name": "to",
          "type": "address"
        },
        {
          "internalType": "uint256",
          "name": "tokenId",
          "type": "uint256"
        }
      ],
      "name": "safeTransferFrom",
      "outputs": [],
      "stateMutability": "nonpayable",
      "type": "function"
    },
    {
      "inputs": [
        {
          "internalType": "address",
          "name": "from",
          "type": "address"
        },
        {
          "internalType": "address",
          "name": "to",
          "type": "address"
        },
        {
          "internalType": "uint256",
          "name": "tokenId",
          "type": "uint256"
        },
        {
          "internalType": "bytes",
          "name": "data",
          "type": "bytes"
        }
      ],
      "name": "safeTransferFrom",
      "outputs": [],
      "stateMutability": "nonpayable",
      "type": "function"
    },
    {
      "inputs": [
        {
          "internalType": "address",
          "name": "operator",
          "type": "address"
        },
        {
          "internalType": "bool",
          "name": "approved",
          "type": "bool"
        }
      ],
      "name": "setApprovalForAll",
      "outputs": [],
      "stateMutability": "nonpayable",
      "type": "function"
    },
    {
      "inputs": [
        {
          "internalType": "bytes4",
          "name": "interfaceId",
          "type": "bytes4"
        }
      ],
      "name": "supportsInterface",
      "outputs": [
        {
          "internalType": "bool",
          "name": "",
          "type": "bool"
        }
      ],
      "stateMutability": "view",
      "type": "function"
    },
    {
      "inputs": [],
      "name": "symbol",
      "outputs": [
        {
          "internalType": "string",
          "name": "",
          "type": "string"
        }
      ],
      "stateMutability": "view",
      "type": "function"
    },
    {
      "inputs": [
        {
          "internalType": "uint256",
          "name": "tokenId",
          "type": "uint256"
        }
      ],
      "name": "tokenURI",
      "outputs": [
        {
          "internalType": "string",
          "name": "",
          "type": "string"
        }
      ],
      "stateMutability": "view",
      "type": "function"
    },
    {
      "inputs": [
        {
          "internalType": "address",
          "name": "from",
          "type": "address"
        },
        {
          "internalType": "address",
          "name": "to",
          "type": "address"
        },
        {
          "internalType": "uint256",
          "name": "tokenId",
          "type": "uint256"
        }
      ],
      "name": "transferFrom",
      "outputs": [],
      "stateMutability": "nonpayable",
      "type": "function"
    },
    {
      "inputs": [
        {
          "internalType": "address",
          "name": "newOwner",
          "type": "address"
        }
      ],
      "name": "transferOwnership",
      "outputs": [],
      "stateMutability": "nonpayable",
      "type": "function"
    }
  ],
  "bytecode": "0x60806040523480156200001157600080fd5b506040518060400160405280601381526020017f4c6561726e696e674365727469666963617465000000000000000000000000008152506040518060400160405280600581526020017f4c4345525400000000000000000000000000000000000000000000000000000081525081600090816200008f919062000412565b508060019081620000a1919062000412565b505050620000c4620000b8620000ca60201b60201c565b620000d260201b60201c565b620004f9565b600033905090565b6000600660009054906101000a900473ffffffffffffffffffffffffffffffffffffffff16905081600660006101000a81548173ffffffffffffffffffffffffffffffffffffffff021916908373ffffffffffffffffffffffffffffffffffffffff1602179055508173ffffffffffffffffffffffffffffffffffffffff168173ffffffffffffffffffffffffffffffffffffffff167f8be0079c531659141344cd1fd0a4f28419497f9722a3daafe3b4186f6b6457e060405160405180910390a35050565b600081519050919050565b7f4e487b7100000000000000000000000000000000000000000000000000000000600052604160045260246000fd5b7f4e487b7100000000000000000000000000000000000000000000000000000000600052602260045260246000fd5b600060028204905060018216806200021a57607f821691505b60208210810362000230576200022f620001d2565b5b50919050565b60008190508160005260206000209050919050565b60006020601f8301049050919050565b600082821b905092915050565b6000600883026200029a7fffffffffffffffffffffffffffffffffffffffffffffffffffffffffffffffff826200025b565b620002a686836200025b565b95508019841693508086168417925050509392505050565b6000819050919050565b6000819050919050565b6000620002f3620002ed620002e784620002be565b620002c8565b620002be565b9050919050565b6000819050919050565b6200030f83620002d2565b620003276200031e82620002fa565b84845462000268565b825550505050565b600090565b6200033e6200032f565b6200034b81848462000304565b505050565b5b8181101562000373576200036760008262000334565b60018101905062000351565b5050565b601f821115620003c2576200038c8162000236565b62000397846200024b565b81016020851015620003a7578190505b620003bf620003b6856200024b565b83018262000350565b50505b505050565b600082821c905092915050565b6000620003e760001984600802620003c7565b1980831691505092915050565b6000620004028383620003d4565b9150826002028217905092915050565b6200041d8262000198565b67ffffffffffffffff811115620004395762000438620001a3565b5b62000445825462000201565b6200045282828562000377565b600060209050601f8311600181146200048a576000841562000475578287015190505b620004818582620003f4565b865550620004f1565b601f1984166200049a8662000236565b60005b82811015620004c4578489015182556001820191506020850194506020810190506200049d565b86831015620004e45784890151620004e0601f891682620003d4565b8355505b6001600288020188555050505b505050505050565b6133d480620005096000396000f3fe608060405234801561001057600080fd5b50600436106101215760003560e01c806370a08231116100ad578063b88d4fde11610071578063b88d4fde1461031e578063c87b56dd1461033a578063e985e9c51461036a578063f2fde38b1461039a578063fa1101d2146103b657610121565b806370a082311461028c578063715018a6146102bc5780638da5cb5b146102c657806395d89b41146102e4578063a22cb4651461030257610121565b806323b872dd116100f457806323b872dd146101c057806342842e0e146101dc57806351640fee146101f85780636352211e14610228578063663b3e221461025857610121565b806301ffc9a71461012657806306fdde0314610156578063081812fc14610174578063095ea7b3146101a4575b600080fd5b610140600480360381019061013b9190612041565b6103e6565b60405161014d9190612089565b60405180910390f35b61015e6104c8565b60405161016b9190612134565b60405180910390f35b61018e6004803603810190610189919061218c565b61055a565b60405161019b91906121fa565b60405180910390f35b6101be60048036038101906101b99190612241565b6105a0565b005b6101da60048036038101906101d59190612281565b6106b7565b005b6101f660048036038101906101f19190612281565b610717565b005b610212600480360381019061020d919061218c565b610737565b60405161021f91906123b8565b60405180910390f35b610242600480360381019061023d919061218c565b6109b6565b60405161024f91906121fa565b60405180910390f35b610272600480360381019061026d919061218c565b610a3c565b6040516102839594939291906123e9565b60405180910390f35b6102a660048036038101906102a19190612458565b610c92565b6040516102b39190612485565b60405180910390f35b6102c4610d49565b005b6102ce610d5d565b6040516102db91906121fa565b60405180910390f35b6102ec610d87565b6040516102f99190612134565b60405180910390f35b61031c600480360381019061031791906124cc565b610e19565b005b61033860048036038101906103339190612641565b610e2f565b005b610354600480360381019061034f919061218c565b610e91565b6040516103619190612134565b60405180910390f35b610384600480360381019061037f91906126c4565b610ef9565b6040516103919190612089565b60405180910390f35b6103b460048036038101906103af9190612458565b610f8d565b005b6103d060048036038101906103cb91906127a5565b611010565b6040516103dd9190612485565b60405180910390f35b60007f80ac58cd000000000000000000000000000000000000000000000000000000007bffffffffffffffffffffffffffffffffffffffffffffffffffffffff1916827bffffffffffffffffffffffffffffffffffffffffffffffffffffffff191614806104b157507f5b5e139f000000000000000000000000000000000000000000000000000000007bffffffffffffffffffffffffffffffffffffffffffffffffffffffff1916827bffffffffffffffffffffffffffffffffffffffffffffffffffffffff1916145b806104c157506104c0826110e9565b5b9050919050565b6060600080546104d7906128d1565b80601f0160208091040260200160405190810160405280929190818152602001828054610503906128d1565b80156105505780601f1061052557610100808354040283529160200191610550565b820191906000526020600020905b81548152906001019060200180831161053357829003601f168201915b5050505050905090565b600061056582611153565b6004600083815260200190815260200160002060009054906101000a900473ffffffffffffffffffffffffffffffffffffffff169050919050565b60006105ab826109b6565b90508073ffffffffffffffffffffffffffffffffffffffff168373ffffffffffffffffffffffffffffffffffffffff160361061b576040517f08c379a000000000000000000000000000000000000000000000000000000000815260040161061290612974565b60405180910390fd5b8073ffffffffffffffffffffffffffffffffffffffff1661063a61119e565b73ffffffffffffffffffffffffffffffffffffffff16148061066957506106688161066361119e565b610ef9565b5b6106a8576040517f08c379a000000000000000000000000000000000000000000000000000000000815260040161069f90612a06565b60405180910390fd5b6106b283836111a6565b505050565b6106c86106c261119e565b8261125f565b610707576040517f08c379a00000000000000000000000000000000000000000000000000000000081526004016106fe90612a98565b60405180910390fd5b6107128383836112f4565b505050565b61073283838360405180602001604052806000815250610e2f565b505050565b61073f611fa6565b600860008381526020019081526020016000206040518060a001604052908160008201805461076d906128d1565b80601f0160208091040260200160405190810160405280929190818152602001828054610799906128d1565b80156107e65780601f106107bb576101008083540402835291602001916107e6565b820191906000526020600020905b8154815290600101906020018083116107c957829003601f168201915b505050505081526020016001820180546107ff906128d1565b80601f016020809104026020016040519081016040528092919081815260200182805461082b906128d1565b80156108785780601f1061084d57610100808354040283529160200191610878565b820191906000526020600020905b81548152906001019060200180831161085b57829003601f168201915b505050505081526020016002820154815260200160038201805461089b906128d1565b80601f01602080910402602001604051908101604052809291908181526020018280546108c7906128d1565b80156109145780601f106108e957610100808354040283529160200191610914565b820191906000526020600020905b8154815290600101906020018083116108f757829003601f168201915b5050505050815260200160048201805461092d906128d1565b80601f0160208091040260200160405190810160405280929190818152602001828054610959906128d1565b80156109a65780601f1061097b576101008083540402835291602001916109a6565b820191906000526020600020905b81548152906001019060200180831161098957829003601f168201915b5050505050815250509050919050565b6000806109c2836115ed565b9050600073ffffffffffffffffffffffffffffffffffffffff168173ffffffffffffffffffffffffffffffffffffffff1603610a33576040517f08c379a0000000000000000000000000000000000000000000000000000000008152600401610a2a90612b04565b60405180910390fd5b80915050919050565b6008602052806000526040600020600091509050806000018054610a5f906128d1565b80601f0160208091040260200160405190810160405280929190818152602001828054610a8b906128d1565b8015610ad85780601f10610aad57610100808354040283529160200191610ad8565b820191906000526020600020905b815481529060010190602001808311610abb57829003601f168201915b505050505090806001018054610aed906128d1565b80601f0160208091040260200160405190810160405280929190818152602001828054610b19906128d1565b8015610b665780601f10610b3b57610100808354040283529160200191610b66565b820191906000526020600020905b815481529060010190602001808311610b4957829003601f168201915b505050505090806002015490806003018054610b81906128d1565b80601f0160208091040260200160405190810160405280929190818152602001828054610bad906128d1565b8015610bfa5780601f10610bcf57610100808354040283529160200191610bfa565b820191906000526020600020905b815481529060010190602001808311610bdd57829003601f168201915b505050505090806004018054610c0f906128d1565b80601f0160208091040260200160405190810160405280929190818152602001828054610c3b906128d1565b8015610c885780601f10610c5d57610100808354040283529160200191610c88565b820191906000526020600020905b815481529060010190602001808311610c6b57829003601f168201915b5050505050905085565b60008073ffffffffffffffffffffffffffffffffffffffff168273ffffffffffffffffffffffffffffffffffffffff1603610d02576040517f08c379a0000000000000000000000000000000000000000000000000000000008152600401610cf990612b96565b60405180910390fd5b600360008373ffffffffffffffffffffffffffffffffffffffff1673ffffffffffffffffffffffffffffffffffffffff168152602001908152602001600020549050919050565b610d5161162a565b610d5b60006116a8565b565b6000600660009054906101000a900473ffffffffffffffffffffffffffffffffffffffff16905090565b606060018054610d96906128d1565b80601f0160208091040260200160405190810160405280929190818152602001828054610dc2906128d1565b8015610e0f5780601f10610de457610100808354040283529160200191610e0f565b820191906000526020600020905b815481529060010190602001808311610df257829003601f168201915b5050505050905090565b610e2b610e2461119e565b838361176e565b5050565b610e40610e3a61119e565b8361125f565b610e7f576040517f08c379a0000000000000000000000000000000000000000000000000000000008152600401610e7690612a98565b60405180910390fd5b610e8b848484846118da565b50505050565b6060610e9c82611153565b6000610ea6611936565b90506000815111610ec65760405180602001604052806000815250610ef1565b80610ed08461194d565b604051602001610ee1929190612bf2565b6040516020818303038152906040525b915050919050565b6000600560008473ffffffffffffffffffffffffffffffffffffffff1673ffffffffffffffffffffffffffffffffffffffff16815260200190815260200160002060008373ffffffffffffffffffffffffffffffffffffffff1673ffffffffffffffffffffffffffffffffffffffff16815260200190815260200160002060009054906101000a900460ff16905092915050565b610f9561162a565b600073ffffffffffffffffffffffffffffffffffffffff168173ffffffffffffffffffffffffffffffffffffffff1603611004576040517f08c379a0000000000000000000000000000000000000000000000000000000008152600401610ffb90612c88565b60405180910390fd5b61100d816116a8565b50565b600061101a61162a565b6110246007611a1b565b60006110306007611a31565b905061103c8882611a3f565b6040518060a001604052808881526020018781526020018681526020018581526020018481525060086000838152602001908152602001600020600082015181600001908161108b9190612e54565b5060208201518160010190816110a19190612e54565b506040820151816002015560608201518160030190816110c19190612e54565b5060808201518160040190816110d79190612e54565b50905050809150509695505050505050565b60007f01ffc9a7000000000000000000000000000000000000000000000000000000007bffffffffffffffffffffffffffffffffffffffffffffffffffffffff1916827bffffffffffffffffffffffffffffffffffffffffffffffffffffffff1916149050919050565b61115c81611c5c565b61119b576040517f08c379a000000000000000000000000000000000000000000000000000000000815260040161119290612b04565b60405180910390fd5b50565b600033905090565b816004600083815260200190815260200160002060006101000a81548173ffffffffffffffffffffffffffffffffffffffff021916908373ffffffffffffffffffffffffffffffffffffffff160217905550808273ffffffffffffffffffffffffffffffffffffffff16611219836109b6565b73ffffffffffffffffffffffffffffffffffffffff167f8c5be1e5ebec7d5bd14f71427d1e84f3dd0314c0f7b2291e5b200ac8c7c3b92560405160405180910390a45050565b60008061126b836109b6565b90508073ffffffffffffffffffffffffffffffffffffffff168473ffffffffffffffffffffffffffffffffffffffff1614806112ad57506112ac8185610ef9565b5b806112eb57508373ffffffffffffffffffffffffffffffffffffffff166112d38461055a565b73ffffffffffffffffffffffffffffffffffffffff16145b91505092915050565b8273ffffffffffffffffffffffffffffffffffffffff16611314826109b6565b73ffffffffffffffffffffffffffffffffffffffff161461136a576040517f08c379a000000000000000000000000000000000000000000000000000000000815260040161136190612f98565b60405180910390fd5b600073ffffffffffffffffffffffffffffffffffffffff168273ffffffffffffffffffffffffffffffffffffffff16036113d9576040517f08c379a00000000000000000000000000000000000000000000000000000000081526004016113d09061302a565b60405180910390fd5b6113e68383836001611c9d565b8273ffffffffffffffffffffffffffffffffffffffff16611406826109b6565b73ffffffffffffffffffffffffffffffffffffffff161461145c576040517f08c379a000000000000000000000000000000000000000000000000000000000815260040161145390612f98565b60405180910390fd5b6004600082815260200190815260200160002060006101000a81549073ffffffffffffffffffffffffffffffffffffffff02191690556001600360008573ffffffffffffffffffffffffffffffffffffffff1673ffffffffffffffffffffffffffffffffffffffff168152602001908152602001600020600082825403925050819055506001600360008473ffffffffffffffffffffffffffffffffffffffff1673ffffffffffffffffffffffffffffffffffffffff16815260200190815260200160002060008282540192505081905550816002600083815260200190815260200160002060006101000a81548173ffffffffffffffffffffffffffffffffffffffff021916908373ffffffffffffffffffffffffffffffffffffffff160217905550808273ffffffffffffffffffffffffffffffffffffffff168473ffffffffffffffffffffffffffffffffffffffff167fddf252ad1be2c89b69c2b068fc378daa952ba7f163c4a11628f55a4df523b3ef60405160405180910390a46115e88383836001611ca3565b505050565b60006002600083815260200190815260200160002060009054906101000a900473ffffffffffffffffffffffffffffffffffffffff169050919050565b61163261119e565b73ffffffffffffffffffffffffffffffffffffffff16611650610d5d565b73ffffffffffffffffffffffffffffffffffffffff16146116a6576040517f08c379a000000000000000000000000000000000000000000000000000000000815260040161169d90613096565b60405180910390fd5b565b6000600660009054906101000a900473ffffffffffffffffffffffffffffffffffffffff16905081600660006101000a81548173ffffffffffffffffffffffffffffffffffffffff021916908373ffffffffffffffffffffffffffffffffffffffff1602179055508173ffffffffffffffffffffffffffffffffffffffff168173ffffffffffffffffffffffffffffffffffffffff167f8be0079c531659141344cd1fd0a4f28419497f9722a3daafe3b4186f6b6457e060405160405180910390a35050565b8173ffffffffffffffffffffffffffffffffffffffff168373ffffffffffffffffffffffffffffffffffffffff16036117dc576040517f08c379a00000000000000000000000000000000000000000000000000000000081526004016117d390613102565b60405180910390fd5b80600560008573ffffffffffffffffffffffffffffffffffffffff1673ffffffffffffffffffffffffffffffffffffffff16815260200190815260200160002060008473ffffffffffffffffffffffffffffffffffffffff1673ffffffffffffffffffffffffffffffffffffffff16815260200190815260200160002060006101000a81548160ff0219169083151502179055508173ffffffffffffffffffffffffffffffffffffffff168373ffffffffffffffffffffffffffffffffffffffff167f17307eab39ab6107e8899845ad3d59bd9653f200f220920489ca2b5937696c31836040516118cd9190612089565b60405180910390a3505050565b6118e58484846112f4565b6118f184848484611ca9565b611930576040517f08c379a000000000000000000000000000000000000000000000000000000000815260040161192790613194565b60405180910390fd5b50505050565b606060405180602001604052806000815250905090565b60606000600161195c84611e30565b01905060008167ffffffffffffffff81111561197b5761197a612516565b5b6040519080825280601f01601f1916602001820160405280156119ad5781602001600182028036833780820191505090505b509050600082602001820190505b600115611a10578080600190039150507f3031323334353637383961626364656600000000000000000000000000000000600a86061a8153600a8581611a0457611a036131b4565b5b049450600085036119bb575b819350505050919050565b6001816000016000828254019250508190555050565b600081600001549050919050565b600073ffffffffffffffffffffffffffffffffffffffff168273ffffffffffffffffffffffffffffffffffffffff1603611aae576040517f08c379a0000000000000000000000000000000000000000000000000000000008152600401611aa59061322f565b60405180910390fd5b611ab781611c5c565b15611af7576040517f08c379a0000000000000000000000000000000000000000000000000000000008152600401611aee9061329b565b60405180910390fd5b611b05600083836001611c9d565b611b0e81611c5c565b15611b4e576040517f08c379a0000000000000000000000000000000000000000000000000000000008152600401611b459061329b565b60405180910390fd5b6001600360008473ffffffffffffffffffffffffffffffffffffffff1673ffffffffffffffffffffffffffffffffffffffff16815260200190815260200160002060008282540192505081905550816002600083815260200190815260200160002060006101000a81548173ffffffffffffffffffffffffffffffffffffffff021916908373ffffffffffffffffffffffffffffffffffffffff160217905550808273ffffffffffffffffffffffffffffffffffffffff16600073ffffffffffffffffffffffffffffffffffffffff167fddf252ad1be2c89b69c2b068fc378daa952ba7f163c4a11628f55a4df523b3ef60405160405180910390a4611c58600083836001611ca3565b5050565b60008073ffffffffffffffffffffffffffffffffffffffff16611c7e836115ed565b73ffffffffffffffffffffffffffffffffffffffff1614159050919050565b50505050565b50505050565b6000611cca8473ffffffffffffffffffffffffffffffffffffffff16611f83565b15611e23578373ffffffffffffffffffffffffffffffffffffffff1663150b7a02611cf361119e565b8786866040518563ffffffff1660e01b8152600401611d159493929190613310565b6020604051808303816000875af1925050508015611d5157506040513d601f19601f82011682018060405250810190611d4e9190613371565b60015b611dd3573d8060008114611d81576040519150601f19603f3d011682016040523d82523d6000602084013e611d86565b606091505b506000815103611dcb576040517f08c379a0000000000000000000000000000000000000000000000000000000008152600401611dc290613194565b60405180910390fd5b805181602001fd5b63150b7a0260e01b7bffffffffffffffffffffffffffffffffffffffffffffffffffffffff1916817bffffffffffffffffffffffffffffffffffffffffffffffffffffffff191614915050611e28565b600190505b949350505050565b600080600090507a184f03e93ff9f4daa797ed6e38ed64bf6a1f0100000000000000008310611e8e577a184f03e93ff9f4daa797ed6e38ed64bf6a1f0100000000000000008381611e8457611e836131b4565b5b0492506040810190505b6d04ee2d6d415b85acef81000000008310611ecb576d04ee2d6d415b85acef81000000008381611ec157611ec06131b4565b5b0492506020810190505b662386f26fc100008310611efa57662386f26fc100008381611ef057611eef6131b4565b5b0492506010810190505b6305f5e1008310611f23576305f5e1008381611f1957611f186131b4565b5b0492506008810190505b6127108310611f48576127108381611f3e57611f3d6131b4565b5b0492506004810190505b60648310611f6b5760648381611f6157611f606131b4565b5b0492506002810190505b600a8310611f7a576001810190505b80915050919050565b6000808273ffffffffffffffffffffffffffffffffffffffff163b119050919050565b6040518060a0016040528060608152602001606081526020016000815260200160608152602001606081525090565b6000604051905090565b600080fd5b600080fd5b60007fffffffff0000000000000000000000000000000000000000000000000000000082169050919050565b61201e81611fe9565b811461202957600080fd5b50565b60008135905061203b81612015565b92915050565b60006020828403121561205757612056611fdf565b5b60006120658482850161202c565b91505092915050565b60008115159050919050565b6120838161206e565b82525050565b600060208201905061209e600083018461207a565b92915050565b600081519050919050565b600082825260208201905092915050565b60005b838110156120de5780820151818401526020810190506120c3565b60008484015250505050565b6000601f19601f8301169050919050565b6000612106826120a4565b61211081856120af565b93506121208185602086016120c0565b612129816120ea565b840191505092915050565b6000602082019050818103600083015261214e81846120fb565b905092915050565b6000819050919050565b61216981612156565b811461217457600080fd5b50565b60008135905061218681612160565b92915050565b6000602082840312156121a2576121a1611fdf565b5b60006121b084828501612177565b91505092915050565b600073ffffffffffffffffffffffffffffffffffffffff82169050919050565b60006121e4826121b9565b9050919050565b6121f4816121d9565b82525050565b600060208201905061220f60008301846121eb565b92915050565b61221e816121d9565b811461222957600080fd5b50565b60008135905061223b81612215565b92915050565b6000806040838503121561225857612257611fdf565b5b60006122668582860161222c565b925050602061227785828601612177565b9150509250929050565b60008060006060848603121561229a57612299611fdf565b5b60006122a88682870161222c565b93505060206122b98682870161222c565b92505060406122ca86828701612177565b9150509250925092565b600082825260208201905092915050565b60006122f0826120a4565b6122fa81856122d4565b935061230a8185602086016120c0565b612313816120ea565b840191505092915050565b61232781612156565b82525050565b600060a083016000830151848203600086015261234a82826122e5565b9150506020830151848203602086015261236482826122e5565b9150506040830151612379604086018261231e565b506060830151848203606086015261239182826122e5565b915050608083015184820360808601526123ab82826122e5565b9150508091505092915050565b600060208201905081810360008301526123d2818461232d565b905092915050565b6123e381612156565b82525050565b600060a082019050818103600083015261240381886120fb565b9050818103602083015261241781876120fb565b905061242660408301866123da565b818103606083015261243881856120fb565b9050818103608083015261244c81846120fb565b90509695505050505050565b60006020828403121561246e5761246d611fdf565b5b600061247c8482850161222c565b91505092915050565b600060208201905061249a60008301846123da565b92915050565b6124a98161206e565b81146124b457600080fd5b50565b6000813590506124c6816124a0565b92915050565b600080604083850312156124e3576124e2611fdf565b5b60006124f18582860161222c565b9250506020612502858286016124b7565b9150509250929050565b600080fd5b600080fd5b7f4e487b7100000000000000000000000000000000000000000000000000000000600052604160045260246000fd5b61254e826120ea565b810181811067ffffffffffffffff8211171561256d5761256c612516565b5b80604052505050565b6000612580611fd5565b905061258c8282612545565b919050565b600067ffffffffffffffff8211156125ac576125ab612516565b5b6125b5826120ea565b9050602081019050919050565b82818337600083830152505050565b60006125e46125df84612591565b612576565b905082815260208101848484011115612600576125ff612511565b5b61260b8482856125c2565b509392505050565b600082601f8301126126285761262761250c565b5b81356126388482602086016125d1565b91505092915050565b6000806000806080858703121561265b5761265a611fdf565b5b60006126698782880161222c565b945050602061267a8782880161222c565b935050604061268b87828801612177565b925050606085013567ffffffffffffffff8111156126ac576126ab611fe4565b5b6126b887828801612613565b91505092959194509250565b600080604083850312156126db576126da611fdf565b5b60006126e98582860161222c565b92505060206126fa8582860161222c565b9150509250929050565b600067ffffffffffffffff82111561271f5761271e612516565b5b612728826120ea565b9050602081019050919050565b600061274861274384612704565b612576565b90508281526020810184848401111561276457612763612511565b5b61276f8482856125c2565b509392505050565b600082601f83011261278c5761278b61250c565b5b813561279c848260208601612735565b91505092915050565b60008060008060008060c087890312156127c2576127c1611fdf565b5b60006127d089828a0161222c565b965050602087013567ffffffffffffffff8111156127f1576127f0611fe4565b5b6127fd89828a01612777565b955050604087013567ffffffffffffffff81111561281e5761281d611fe4565b5b61282a89828a01612777565b945050606061283b89828a01612177565b935050608087013567ffffffffffffffff81111561285c5761285b611fe4565b5b61286889828a01612777565b92505060a087013567ffffffffffffffff81111561288957612888611fe4565b5b61289589828a01612777565b9150509295509295509295565b7f4e487b7100000000000000000000000000000000000000000000000000000000600052602260045260246000fd5b600060028204905060018216806128e957607f821691505b6020821081036128fc576128fb6128a2565b5b50919050565b7f4552433732313a20617070726f76616c20746f2063757272656e74206f776e6560008201527f7200000000000000000000000000000000000000000000000000000000000000602082015250565b600061295e6021836120af565b915061296982612902565b604082019050919050565b6000602082019050818103600083015261298d81612951565b9050919050565b7f4552433732313a20617070726f76652063616c6c6572206973206e6f7420746f60008201527f6b656e206f776e6572206f7220617070726f76656420666f7220616c6c000000602082015250565b60006129f0603d836120af565b91506129fb82612994565b604082019050919050565b60006020820190508181036000830152612a1f816129e3565b9050919050565b7f4552433732313a2063616c6c6572206973206e6f7420746f6b656e206f776e6560008201527f72206f7220617070726f76656400000000000000000000000000000000000000602082015250565b6000612a82602d836120af565b9150612a8d82612a26565b604082019050919050565b60006020820190508181036000830152612ab181612a75565b9050919050565b7f4552433732313a20696e76616c696420746f6b656e2049440000000000000000600082015250565b6000612aee6018836120af565b9150612af982612ab8565b602082019050919050565b60006020820190508181036000830152612b1d81612ae1565b9050919050565b7f4552433732313a2061646472657373207a65726f206973206e6f74206120766160008201527f6c6964206f776e65720000000000000000000000000000000000000000000000602082015250565b6000612b806029836120af565b9150612b8b82612b24565b604082019050919050565b60006020820190508181036000830152612baf81612b73565b9050919050565b600081905092915050565b6000612bcc826120a4565b612bd68185612bb6565b9350612be68185602086016120c0565b80840191505092915050565b6000612bfe8285612bc1565b9150612c0a8284612bc1565b91508190509392505050565b7f4f776e61626c653a206e6577206f776e657220697320746865207a65726f206160008201527f6464726573730000000000000000000000000000000000000000000000000000602082015250565b6000612c726026836120af565b9150612c7d82612c16565b604082019050919050565b60006020820190508181036000830152612ca181612c65565b9050919050565b60008190508160005260206000209050919050565b60006020601f8301049050919050565b600082821b905092915050565b600060088302612d0a7fffffffffffffffffffffffffffffffffffffffffffffffffffffffffffffffff82612ccd565b612d148683612ccd565b95508019841693508086168417925050509392505050565b6000819050919050565b6000612d51612d4c612d4784612156565b612d2c565b612156565b9050919050565b6000819050919050565b612d6b83612d36565b612d7f612d7782612d58565b848454612cda565b825550505050565b600090565b612d94612d87565b612d9f818484612d62565b505050565b5b81811015612dc357612db8600082612d8c565b600181019050612da5565b5050565b601f821115612e0857612dd981612ca8565b612de284612cbd565b81016020851015612df1578190505b612e05612dfd85612cbd565b830182612da4565b50505b505050565b600082821c905092915050565b6000612e2b60001984600802612e0d565b1980831691505092915050565b6000612e448383612e1a565b9150826002028217905092915050565b612e5d826120a4565b67ffffffffffffffff811115612e7657612e75612516565b5b612e8082546128d1565b612e8b828285612dc7565b600060209050601f831160018114612ebe5760008415612eac578287015190505b612eb68582612e38565b865550612f1e565b601f198416612ecc86612ca8565b60005b82811015612ef457848901518255600182019150602085019450602081019050612ecf565b86831015612f115784890151612f0d601f891682612e1a565b8355505b6001600288020188555050505b505050505050565b7f4552433732313a207472616e736665722066726f6d20696e636f72726563742060008201527f6f776e6572000000000000000000000000000000000000000000000000000000602082015250565b6000612f826025836120af565b9150612f8d82612f26565b604082019050919050565b60006020820190508181036000830152612fb181612f75565b9050919050565b7f4552433732313a207472616e7366657220746f20746865207a65726f2061646460008201527f7265737300000000000000000000000000000000000000000000000000000000602082015250565b60006130146024836120af565b915061301f82612fb8565b604082019050919050565b6000602082019050818103600083015261304381613007565b9050919050565b7f4f776e61626c653a2063616c6c6572206973206e6f7420746865206f776e6572600082015250565b60006130806020836120af565b915061308b8261304a565b602082019050919050565b600060208201905081810360008301526130af81613073565b9050919050565b7f4552433732313a20617070726f766520746f2063616c6c657200000000000000600082015250565b60006130ec6019836120af565b91506130f7826130b6565b602082019050919050565b6000602082019050818103600083015261311b816130df565b9050919050565b7f4552433732313a207472616e7366657220746f206e6f6e20455243373231526560008201527f63656976657220696d706c656d656e7465720000000000000000000000000000602082015250565b600061317e6032836120af565b915061318982613122565b604082019050919050565b600060208201905081810360008301526131ad81613171565b9050919050565b7f4e487b7100000000000000000000000000000000000000000000000000000000600052601260045260246000fd5b7f4552433732313a206d696e7420746f20746865207a65726f2061646472657373600082015250565b60006132196020836120af565b9150613224826131e3565b602082019050919050565b600060208201905081810360008301526132488161320c565b9050919050565b7f4552433732313a20746f6b656e20616c7265616479206d696e74656400000000600082015250565b6000613285601c836120af565b91506132908261324f565b602082019050919050565b600060208201905081810360008301526132b481613278565b9050919050565b600081519050919050565b600082825260208201905092915050565b60006132e2826132bb565b6132ec81856132c6565b93506132fc8185602086016120c0565b613305816120ea565b840191505092915050565b600060808201905061332560008301876121eb565b61333260208301866121eb565b61333f60408301856123da565b818103606083015261335181846132d7565b905095945050505050565b60008151905061336b81612015565b92915050565b60006020828403121561338757613386611fdf565b5b60006133958482850161335c565b9150509291505056fea26469706673582212203ced0e8d9601e973e3fa00a2e82abd1e576c5c9ebce0217bfa8f7e29f2f52f2a64736f6c63430008140033",
  "linkReferences": {},
  "deployedLinkReferences": {}
}